:020000040000FA
:0400000092EF00F08B
:0600080053821EED0DF015
:100018005380D8CF86F0E8CF87F0E0CF88F0D9CFEB
:1000280089F0DACF8AF09EAA1CEF00F01EEF00F0EC
:100038002EEF00F0ABA223EF00F025EF00F02AEF3F
:1000480000F0AB9800F0AB882AEF00F041EC12F01A
:100058002EEF00F09EA033EF00F035EF00F086EFB2
:1000680000F09E900001C751C811D8A43EEF00F0DF
:1000780040EF00F05BEF00F0100EBE6046EF00F0BE
:1000880048EF00F05BEF00F0BE28BE6E100EBE1801
:10009800D8A451EF00F053EF00F07EEF00F0000E0F
:1000A800C86F010EC76F7EEF00F07EEF00F0C70546
:1000B800C811D8A462EF00F064EF00F07EEF00F002
:1000C800BE50D8B46AEF00F06CEF00F07EEF00F09D
:1000D800BE04BE6EBE50D8A474EF00F076EF00F0F8
:1000E8007EEF00F0000EC86F000EC76F7EEF00F0C5
:1000F8007EEF00F0850ECF6EED0ECE6E86EF00F02F
:1001080086EF00F08AC0DAFF89C0D9FF88C0E0FF17
:1001180087C0E8FF86C0D8FF53901000E7EF12F0C1
:10060000000A48656C6C6F20576F726C640A006357
:100610006C656172007072696E74006175746F0050
:030620002E0000A9
:1006240000019C51800BA56F9C519C25AB6F9BAF27
:100634001EEF03F020EF03F023EF03F0AB8123EF71
:1006440003F0AB51D8B429EF03F02BEF03F040EFE4
:1006540003F0AB29D8A431EF03F033EF03F03DEFFF
:1006640003F0000E996F000E9A6F000E9B6F000E40
:100674009C6F3DEF03F09B8F4AEF03F0000E996FE0
:10068400000E9A6F000E9B6F000E9C6F4AEF03F0F2
:10069400A051800BA51BA051A025AA6F9FAF55EFB9
:1006A40003F057EF03F05AEF03F0AA815AEF03F077
:1006B400AA51D8B460EF03F062EF03F077EF03F0D0
:1006C400AA29D8A468EF03F06AEF03F074EF03F0EB
:1006D400000E9D6F000E9E6F000E9F6F000EA06FA8
:1006E40074EF03F09F8F7FEF03F0000E9D6F000EF9
:1006F4009E6F000E9F6F000EA06FAA51D8B485EFB5
:1007040003F087EF03F091EF03F0AB51D8A48DEF22
:1007140003F08FEF03F09DEF03F091EF03F0000E71
:10072400996F000E9A6F000E9B6F000E9C6F49EF3D
:1007340005F049EF05F09F519903F3CFB0F0F4CFE2
:10074400B1F0B051A66FA76BA86BA96BB151AC6F98
:10075400AD6BAE6BAF6B9E519A03F3CFB0F0F4CF99
:10076400B1F0B051A627000EA723A823A923B151A5
:10077400AC27000EAD23AE23AF239D519B03F3CFD3
:10078400B0F0F4CFB1F0B051A627000EA723A823F0
:10079400A923B151AC27000EAD23AE23AF23A8C0CB
:1007A400A9F0A7C0A8F0A6C0A7F0A66B9D519A0314
:1007B400F3CFB0F0F4CFB1F0B051A627B151A723D5
:1007C400000EA823000EA9239E519903F3CFB0F085
:1007D400F4CFB1F0B051A627B151A723000EA8233E
:1007E400000EA923A8C0A9F0A7C0A8F0A6C0A7F02E
:1007F400A66B9D519903F3CFB0F0F4CFB1F0B05193
:10080400A627B151A723000EA823000EA9239F51A8
:100814009A03F3CFB0F0F4CFB1F0B051AC27B1519B
:10082400AD23000EAE23000EAF239E519B03F3CFE6
:10083400B0F0F4CFB1F0B051AC27B151AD23000EFC
:10084400AE23000EAF239F519B03F3CFB0F0F4CF40
:10085400B1F0B051A16FB151A26FA36BA46BA3C04F
:10086400A4F0A2C0A3F0A1C0A2F0A16BA151AC2737
:10087400A251AD23A351AE23A451AF23A6C0A1F02E
:10088400A7C0A2F0A8C0A3F0A9C0A4F0190E50EF0D
:1008940004F0D890A433A333A233A133E82E4BEF52
:1008A40004F0A151AC27A251AD23A351AE23A4510E
:1008B400AF23A8C0A9F0A7C0A8F0A6C0A7F0A66B54
:1008C400AA51ABC0A1F0A26BA127000EA223820EF5
:1008D400A125B06FFF0EA221B16F88EF04F0D8906C
:1008E400AC37AD37AE37AF37A9AF7BEF04F07DEF50
:1008F40004F07EEF04F0AC81D890A637A737A83770
:10090400A937B007D8A0B10788EF04F0AEAF8DEFD8
:1009140004F08FEF04F071EF04F091EF04F0000E97
:10092400AA6FA9AF98EF04F09AEF04F0C2EF04F0B5
:10093400FF0EA615A16FFF0EA715A26FFF0EA81537
:10094400A36F7F0EA915A46FA151A211A311A41125
:10095400D8B4AFEF04F0B1EF04F0B5EF04F0010E3A
:10096400AA6FC2EF04F0ACA1BAEF04F0BCEF04F03C
:10097400C2EF04F0010EAA6FC2EF04F0C2EF04F05C
:10098400AA51D8B4C8EF04F0CAEF04F0F2EF04F0AF
:10099400010EAC27000EAD23AE23AF23AFA1D5EFDC
:1009A40004F0D7EF04F0F2EF04F0ACC0A1F0ADC056
:1009B400A2F0AEC0A3F0AFC0A4F0A435A433A33317
:1009C400A233A133A1C0ACF0A2C0ADF0A3C0AEF07D
:1009D400A4C0AFF0B04BB12BF2EF04F0F2EF04F08F
:1009E400B1BFFDEF04F0B15108E1B029D8A0FDEF8B
:1009F40004F0FFEF04F009EF05F0000EAC6F000EF9
:100A0400AD6F800EAE6F7F0EAF6F3DEF05F0B1BFDF
:100A140016EF05F0B15106E1B005D8B014EF05F0BA
:100A240016EF05F022EF05F0000EAC6F000EAD6F6F
:100A3400000EAE6F000EAF6F000EA56F3DEF05F018
:100A4400B0C0ABF0FF0EAC17FF0EAD177F0EAE17A4
:100A5400000EAF17ABA131EF05F033EF05F036EF21
:100A640005F0AE8F36EF05F0D890AB31AF6F3DEFA8
:100A740005F03DEF05F0A551AF13ACC099F0ADC042
:100A84009AF0AEC09BF0AFC09CF049EF05F01200A5
:100A94001250800B1B6E12501224216E11AE55EFB2
:100AA40005F057EF05F05AEF05F021805AEF05F0F5
:100AB4002150D8B460EF05F062EF05F077EF05F050
:100AC4002128D8A468EF05F06AEF05F074EF05F06B
:100AD400000E0F6E000E106E000E116E000E126EE0
:100AE40074EF05F0118E81EF05F0000E0F6E000E0D
:100AF400106E000E116E000E126E81EF05F016508E
:100B0400800B1B1A16501624206E15AE8CEF05F0C0
:100B14008EEF05F091EF05F0208091EF05F0205065
:100B2400D8B497EF05F099EF05F0AEEF05F0202863
:100B3400D8A49FEF05F0A1EF05F0ABEF05F0000E90
:100B4400136E000E146E000E156E000E166EABEFD3
:100B540005F0158EB6EF05F0000E136E000E146E40
:100B6400000E156E000E166E2050D8B4BCEF05F0C2
:100B7400BEEF05F0C8EF05F02150D8A4C4EF05F08E
:100B8400C6EF05F0D4EF05F0C8EF05F0000E0F6EC8
:100B9400000E106E000E116E000E126E80EF07F044
:100BA40080EF07F015500F02F3CF26F0F4CF27F0B3
:100BB40026501C6E1D6A1E6A1F6A2750226E236A05
:100BC400246A256A14501002F3CF26F0F4CF27F0DC
:100BD40026501C26000E1D221E221F2227502226CC
:100BE400000E23222422252213501102F3CF26F0D3
:100BF400F4CF27F026501C26000E1D221E221F2291
:100C040027502226000E2322242225221EC01FF054
:100C14001DC01EF01CC01DF01C6A13501002F3CF3F
:100C240026F0F4CF27F026501C2627501D22000E54
:100C34001E22000E1F2214500F02F3CF26F0F4CF11
:100C440027F026501C2627501D22000E1E22000EBF
:100C54001F221EC01FF01DC01EF01CC01DF01C6A08
:100C640013500F02F3CF26F0F4CF27F026501C26A2
:100C740027501D22000E1E22000E1F2215501002A6
:100C8400F3CF26F0F4CF27F0265022262750232234
:100C9400000E2422000E252214501102F3CF26F058
:100CA400F4CF27F02650222627502322000E242298
:100CB400000E252215501102F3CF26F0F4CF27F0B1
:100CC4002650176E2750186E196A1A6A19C01AF03E
:100CD40018C019F017C018F0176A175022261850B8
:100CE4002322195024221A5025221CC017F01DC09B
:100CF40018F01EC019F01FC01AF0190E87EF06F085
:100D0400D8901A32193218321732E82E82EF06F0D0
:100D14001750222618502322195024221A50252213
:100D24001EC01FF01DC01EF01CC01DF01C6A205008
:100D340021C017F0186A1726000E1822820E1724F5
:100D4400266EFF0E1820276EBFEF06F0D8902236CD
:100D54002336243625361FAEB2EF06F0B4EF06F084
:100D6400B5EF06F02280D8901C361D361E361F368D
:100D74002606D8A02706BFEF06F024AEC4EF06F07F
:100D8400C6EF06F0A8EF06F0C8EF06F0000E206EDE
:100D94001FAECFEF06F0D1EF06F0F9EF06F0FF0E2D
:100DA4001C14176EFF0E1D14186EFF0E1E14196E00
:100DB4007F0E1F141A6E1750181019101A10D8B479
:100DC400E6EF06F0E8EF06F0ECEF06F0010E206E19
:100DD400F9EF06F022A0F1EF06F0F3EF06F0F9EFD9
:100DE40006F0010E206EF9EF06F0F9EF06F0205040
:100DF400D8B4FFEF06F001EF07F029EF07F0010E7A
:100E04002226000E23222422252225A00CEF07F0FF
:100E14000EEF07F029EF07F022C017F023C018F0F7
:100E240024C019F025C01AF01A341A3219321832B3
:100E3400173217C022F018C023F019C024F01AC0CA
:100E440025F0264A272A29EF07F029EF07F027BEC5
:100E540034EF07F0275008E12628D8A034EF07F034
:100E640036EF07F040EF07F0000E226E000E236EFF
:100E7400800E246E7F0E256E74EF07F027BE4DEFB3
:100E840007F0275006E12604D8B04BEF07F04DEFEA
:100E940007F059EF07F0000E226E000E236E000ECD
:100EA400246E000E256E000E1B6E74EF07F026C034
:100EB40021F0FF0E2216FF0E23167F0E2416000EBD
:100EC400251621A068EF07F06AEF07F06DEF07F031
:100ED400248E6DEF07F0D8902130256E74EF07F063
:100EE40074EF07F01B50251222C00FF023C010F03E
:100EF40024C011F025C012F080EF07F01200000E9C
:100F04000001BE6F000EBF6F000EC06F000EC16FF8
:100F1400BCC08BF0BDC08CF0000E8CBFFF0E8D6F7B
:100F24008E6F010EEDEC09F08BC099F08CC09AF035
:100F34008DC09BF08EC09CF00A0E00019D6F280EA0
:100F44009E6FA00E9F6F3B0EA06F12EC03F099C032
:100F5400BEF09AC0BFF09BC0C0F09CC0C1F0000EB0
:100F640000019D6F000E9E6FC80E9F6F420EA06F12
:100F7400BEC099F0BFC09AF0C0C09BF0C1C09CF045
:100F840012EC03F099C0B2F09AC0B3F09BC0B4F075
:100F94009CC0B5F0CBEC0BF0B2C0C3F0B3C0C4F04E
:100FA4000A0E0001C26FC25135EC13F0C3C08BF0BE
:100FB400C4C08CF0000E00018E6F640E8D6FA0EC27
:100FC4000EF000018CBFEFEF07F08C5108E18B05A8
:100FD400D8A0EFEF07F0F1EF07F059EF08F0C3C026
:100FE4008BF0C4C08CF0000E8E6F640E8D6FA0EC7D
:100FF4000EF000018B51300FC26F000E8E6F640E25
:101004008D6FC3C08BF0C4C08CF0A0EC0EF08BC00D
:1010140093F08CC094F0000E0001966F640E956FEF
:10102400D1EC12F00001931F941F934B942BC351E6
:101034009325C36FC4519421C46FC25135EC13F08E
:101044002E0E35EC13F0C3C08BF0C4C08CF0000E30
:1010540000018E6F0A0E8D6FA0EC0EF000018B5113
:10106400300FC26F000E8E6F0A0E8D6FC3C08BF0EF
:10107400C4C08CF0A0EC0EF08BC093F08CC094F044
:10108400000E0001966F0A0E956FD1EC12F000016C
:10109400931F941F934B942BC3519325C36FC45137
:1010A4009421C46FC25135EC13F0B9EF08F0C3C0FA
:1010B4008BF0C4C08CF0000E00018E6F0A0E8D6F91
:1010C400A0EC0EF000018CBF70EF08F08C5108E129
:1010D4008B05D8A070EF08F072EF08F0ACEF08F0C1
:1010E400300E35EC13F02E0E35EC13F0C3C08BF03C
:1010F400C4C08CF0000E00018E6F0A0E8D6FA0EC40
:101104000EF000018B51300FC26F000E8E6F0A0E6D
:101114008D6FC3C08BF0C4C08CF0A0EC0EF08BC0FC
:1011240093F08CC094F0000E0001966F0A0E956F38
:10113400D1EC12F00001931F941F934B942BC351D5
:101144009325C36FC4519421C46FC25135EC13F07D
:10115400B9EF08F0300E35EC13F02E0E35EC13F029
:10116400300E35EC13F0B9EF08F0B9EF08F00001D8
:10117400C351300FC26FC25135EC13F01200000E90
:10118400346E000E356E000E366E000E376E32C0B1
:1011940001F033C002F0000E02BEFF0E036E046EB7
:1011A400010EDDEC0AF001C00FF002C010F003C024
:1011B40011F004C012F00A0E136E280E146EA00E65
:1011C400156E3B0E166E4AEC05F00FC034F010C0DD
:1011D40035F011C036F012C037F0000E136E000E59
:1011E400146EC80E156E420E166E34C00FF035C064
:1011F40010F036C011F037C012F04AEC05F00FC001
:1012040028F010C029F011C02AF012C02BF075ECA0
:101214000CF028C039F029C03AF00A0E386E385064
:1012240055EC13F039C001F03AC002F0000E046E20
:10123400640E036E17EC0FF002BE29EF09F00250A2
:1012440008E10104D8A029EF09F02BEF09F08CEF95
:1012540009F039C001F03AC002F0000E046E640EC9
:10126400036E17EC0FF00150300F386E000E046E51
:10127400640E036E39C001F03AC002F017EC0FF0AF
:1012840001C009F002C00AF0000E0C6E640E0B6E71
:10129400FCEC12F0091E0A1E094A0A2A39500924D4
:1012A400396E3A500A203A6E385055EC13F02E0E2F
:1012B40055EC13F039C001F03AC002F0000E046E90
:1012C4000A0E036E17EC0FF00150300F386E000E4B
:1012D400046E0A0E036E39C001F03AC002F017EC36
:1012E4000FF001C009F002C00AF0000E0C6E0A0EE5
:1012F4000B6EFCEC12F0091E0A1E094A0A2A395028
:101304000924396E3A500A203A6E385055EC13F0DD
:10131400E6EF09F039C001F03AC002F0000E046EA5
:101324000A0E036E17EC0FF002BEA1EF09F0025093
:1013340008E10104D8A0A1EF09F0A3EF09F0D9EF67
:1013440009F0300E55EC13F02E0E55EC13F039C0A5
:1013540001F03AC002F0000E046E0A0E036E17ECA0
:101364000FF00150300F386E000E046E0A0E036E3B
:1013740039C001F03AC002F017EC0FF001C009F0D7
:1013840002C00AF0000E0C6E0A0E0B6EFCEC12F09A
:10139400091E0A1E094A0A2A39500924396E3A508C
:1013A4000A203A6E385055EC13F0E6EF09F0300E8F
:1013B40055EC13F02E0E55EC13F0300E55EC13F0E3
:1013C400E6EF09F0E6EF09F03950300F386E385087
:1013D40055EC13F012000001936F00019351D8B43F
:1013E400F6EF09F0F8EF09F01AEF0AF08EBFFFEFFD
:1013F40009F0FDEF09F01AEF0AF08BC08FF08CC0F2
:1014040090F08DC091F08EC092F08F1F901F911FAD
:10141400921F8F2B000E9023912392238FC095F05F
:1014240090C096F091C097F092C098F024EF0AF023
:101434008BC095F08CC096F08DC097F08EC098F05C
:1014440024EF0AF08B518C118D118E11D8A42DEF3D
:101454000AF02FEF0AF03BEF0AF0000E8B6F000E3C
:101464008C6F000E8D6F000E8E6FDCEF0AF0DCEFD8
:101474000AF0960E946F47EF0AF0942BD8909833A5
:1014840097339633953347EF0AF0000E95158F6F17
:10149400000E9615906F000E9715916FFE0E98151D
:1014A400926F8F51901191119211D8A45CEF0AF0B0
:1014B4005EEF0AF03FEF0AF06EEF0AF06EEF0AF00B
:1014C400942B010E9527000E962397239823D890EA
:1014D4009833973396339533000E95158F6F000E1E
:1014E4009615906F000E9715916FFF0E9815926FD9
:1014F4008F51901191119211D8A483EF0AF085EFC6
:101504000AF062EF0AF091EF0AF091EF0AF0940703
:10151400D890953796379737983791EF0AF097BF59
:1015240096EF0AF098EF0AF0A2EF0AF0020E946127
:101534009EEF0AF0A0EF0AF089EF0AF0A2EF0AF09A
:1015440094B1A7EF0AF0A9EF0AF0ACEF0AF0979F65
:10155400ACEF0AF0D890943394C08FF0906B916BF9
:10156400926B8FC092F0916B906B8F6B8F51951330
:101574009051961391519713925198139351D8B453
:10158400C6EF0AF0C8EF0AF0D2EF0AF08EBFCFEF31
:101594000AF0CDEF0AF0D2EF0AF0988FD2EF0AF0FA
:1015A40095C08BF096C08CF097C08DF098C08EF0EB
:1015B400DCEF0AF01200096E0950D8B4E4EF0AF027
:1015C400E6EF0AF008EF0BF004BEEDEF0AF0EBEFE4
:1015D4000AF008EF0BF001C005F002C006F003C0EA
:1015E40007F004C008F0051E061E071E081E052A83
:1015F400000E06220722082205C00BF006C00CF0DC
:1016040007C00DF008C00EF012EF0BF001C00BF094
:1016140002C00CF003C00DF004C00EF012EF0BF08A
:101624000150021003100410D8A41BEF0BF01DEF9F
:101634000BF029EF0BF0000E016E000E026E000E8F
:10164400036E000E046ECAEF0BF0CAEF0BF0960E99
:101654000A6E35EF0BF00A2AD8900E320D320C3296
:101664000B3235EF0BF0000E0B14056E000E0C144C
:10167400066E000E0D14076EFE0E0E14086E055055
:10168400061007100810D8A44AEF0BF04CEF0BF02B
:101694002DEF0BF05CEF0BF05CEF0BF00A2A010E60
:1016A4000B26000E0C220D220E22D8900E320D3283
:1016B4000C320B32000E0B14056E000E0C14066E69
:1016C400000E0D14076EFF0E0E14086E0550061062
:1016D40007100810D8A471EF0BF073EF0BF050EF64
:1016E4000BF07FEF0BF07FEF0BF00A06D8900B3670
:1016F4000C360D360E367FEF0BF00DBE84EF0BF07B
:1017040086EF0BF090EF0BF0020E0A608CEF0BF0FB
:101714008EEF0BF077EF0BF090EF0BF00AB095EF34
:101724000BF097EF0BF09AEF0BF00D9E9AEF0BF086
:10173400D8900A320AC005F0066A076A086A05C02A
:1017440008F0076A066A056A05500B1206500C1267
:1017540007500D1208500E120950D8B4B4EF0BF014
:10176400B6EF0BF0C0EF0BF004BEBDEF0BF0BBEF18
:101774000BF0C0EF0BF00E8EC0EF0BF00BC001F0BE
:101784000CC002F00DC003F00EC004F0CAEF0BF061
:1017940012000001B435B535BB6FBB51D8A4D5EFE9
:1017A4000BF0D7EF0BF0E3EF0BF0000EB26F000E6F
:1017B400B36F000EB46F000EB56F74EF0CF074EFDE
:1017C4000CF0B2C0B6F0B3C0B7F0B4C0B8F0B5C056
:1017D400B9F0200EF3EF0BF0D890B933B833B73328
:1017E400B633E82EEEEF0BF0B651BA6FB48FFF0E9E
:1017F400B217FF0EB317FF0EB417000EB517960EEF
:10180400BB5FBBBF0AEF0CF008EF0CF02EEF0CF03F
:10181400BB51800A970FD8B012EF0CF014EF0CF004
:1018240022EF0CF0000EB26F000EB36F000EB46F17
:10183400000EB56F74EF0CF074EF0CF022EF0CF0A7
:10184400D890B533B433B333B233BB3F22EF0CF08B
:1018540058EF0CF058EF0CF01F0EBB6534EF0CF092
:1018640036EF0CF04CEF0CF0000EB26F000EB36FBD
:10187400000EB46F000EB56F74EF0CF074EF0CF043
:101884004CEF0CF0D890B237B337B437B537BB0749
:101894004CEF0CF0BB51D8A452EF0CF054EF0CF009
:1018A40044EF0CF058EF0CF058EF0CF0BA51D8B4E8
:1018B4005EEF0CF060EF0CF06AEF0CF0B51FB41F94
:1018C400B31FB26D000EB323B423B5236AEF0CF03B
:1018D400B2C0B2F0B3C0B3F0B4C0B4F0B5C0B5F0A8
:1018E40074EF0CF012002A342B34316E3150D8A42A
:1018F4007EEF0CF080EF0CF08CEF0CF0000E286EF5
:10190400000E296E000E2A6E000E2B6E1DEF0DF0D8
:101914001DEF0DF028C02CF029C02DF02AC02EF0A8
:101924002BC02FF0200E9CEF0CF0D8902F322E32CB
:101934002D322C32E82E97EF0CF02C50306E2A8E7C
:10194400FF0E2816FF0E2916FF0E2A16000E2B1660
:10195400960E315E31BEB3EF0CF0B1EF0CF0D7EF61
:101964000CF03150800A970FD8B0BBEF0CF0BDEFEC
:101974000CF0CBEF0CF0000E286E000E296E000E5A
:101984002A6E000E2B6E1DEF0DF01DEF0DF0CBEF48
:101994000CF0D8902B322A3229322832313ECBEF48
:1019A4000CF001EF0DF001EF0DF01F0E3164DDEFCF
:1019B4000CF0DFEF0CF0F5EF0CF0000E286E000ECB
:1019C400296E000E2A6E000E2B6E1DEF0DF01DEF1A
:1019D4000DF0F5EF0CF0D890283629362A362B3640
:1019E4003106F5EF0CF03150D8A4FBEF0CF0FDEF0D
:1019F4000CF0EDEF0CF001EF0DF001EF0DF03050B5
:101A0400D8B407EF0DF009EF0DF013EF0DF02B1E16
:101A14002A1E291E286C000E29222A222B2213EFAB
:101A24000DF028C028F029C029F02AC02AF02BC0C4
:101A34002BF01DEF0DF012000600D9CF3BF0DACFEA
:101A44003CF0F3CF3DF0F4CF3EF0F6CF3FF0F7CFCC
:101A540040F0F8CF41F0F5CF42F09EAC34EF0DF0FA
:101A640036EF0DF07FEF0DF09E9CC280CB0E0E6E14
:101A7400000E0F6E200E106E060E116E69EC10F043
:101A84000E500F10D8A449EF0DF04BEF0DF04FEFAF
:101A94000DF0A090B1904FEF0DF0C3504F26C450FD
:101AA4005022514A522A040E51185210D8A45DEF04
:101AB4000DF05FEF0DF091EF0DF04FC001F050C04D
:101AC40002F0000E046E040E036E17EC0FF001C05A
:101AD40043F002C044F043C032F044C033F0C1ECE0
:101AE40008F0000E506E000E4F6E000E526E000E87
:101AF400516E91EF0DF091EF0DF0A1A084EF0DF078
:101B040086EF0DF091EF0DF0A1907A0EBC6E120EDF
:101B1400BB6E91EF0DF091EF0DF091EF0DF042C01F
:101B2400F5FF41C0F8FF40C0F7FF3FC0F6FF3EC0DD
:101B3400F4FF3DC0F3FF3CC0DAFF3BC0D9FF539232
:101B440011008BC094F08CC095F08DC096F08EC0BF
:101B540097F000018F07D8A090078F2906E19029FC
:101B6400D8A4B7EF0DF0B9EF0DF0CCEF0DF0000EE7
:101B74008C6F000E8B6F21EF0EF021EF0EF0CCEF87
:101B84000DF0944B952B964B972B8F07D8A090076D
:101B9400CCEF0DF094C0D9FF95C0DAFFDF50D8B474
:101BA400D6EF0DF0D8EF0DF007EF0EF096C0F6FF6C
:101BB40097C0F7FF0800F5500009D8B4E4EF0DF022
:101BC400E6EF0DF007EF0EF08F519011D8B4EDEF62
:101BD4000DF0EFEF0DF007EF0EF094C0D9FF95C0B4
:101BE400DAFFDF50916F96C0F6FF97C0F7FF080049
:101BF400F5509119D8B401EF0EF003EF0EF0C3EFD6
:101C04000DF007EF0EF007EF0EF096C0F6FF97C049
:101C1400F7FF0800F550916F926B911F921F914B43
:101C2400922B94C0D9FF95C0DAFFDF50936F935184
:101C340091258B6F000E92218C6F21EF0EF0120014
:101C440001C00AF002C00BF003C00CF004C00DF098
:101C54000506D8A00606052806E10628D8A435EF0F
:101C64000EF037EF0EF04AEF0EF0000E026E000E8B
:101C7400016E9FEF0EF09FEF0EF04AEF0EF00A4A4E
:101C84000B2A0C4A0D2A0506D8A006064AEF0EF0C8
:101C94000AC0D9FF0BC0DAFFDF50D8B454EF0EF0FE
:101CA40056EF0EF085EF0EF00CC0F6FF0DC0F7FFF7
:101CB4000800F5500009D8B462EF0EF064EF0EF09E
:101CC40085EF0EF005500610D8B46BEF0EF06DEFF3
:101CD4000EF085EF0EF00AC0D9FF0BC0DAFFDF501B
:101CE400076E0CC0F6FF0DC0F7FF0800F55007188B
:101CF400D8B47FEF0EF081EF0EF041EF0EF085EFD8
:101D04000EF085EF0EF00CC0F6FF0DC0F7FF0800D3
:101D1400F550076E086A071E081E074A082A0AC0FB
:101D2400D9FF0BC0DAFFDF50096E09500724016E9A
:101D3400000E0820026E9FEF0EF01200000E00014C
:101D4400906F8EBFAAEF0EF0A8EF0EF0B2EF0EF078
:101D54008D6D8E1FD8B08E2B010E906FB2EF0EF0EA
:101D64008CBFB9EF0EF0B7EF0EF0C1EF0EF08B6D34
:101D74008C1FD8B08C2B010E901BC1EF0EF0000EFF
:101D8400926F000E916F8D518E11D8B4CCEF0EF07E
:101D9400CEEF0EF002EF0FF0010E8F6FD8EF0EF0C2
:101DA400D8908D378E378F2BD8EF0EF08EAFDDEFB6
:101DB4000EF0DFEF0EF0D2EF0EF0E3EF0EF0E3EFF4
:101DC4000EF0D890913792378D518B5D8E518C598E
:101DD400D8A0EFEF0EF0F1EF0EF0F8EF0EF08D510A
:101DE4008B5F8E518C5B9181F8EF0EF0D8908E331F
:101DF4008D338F2FE3EF0EF002EF0FF002EF0FF0B1
:101E04009051D8B408EF0FF00AEF0FF010EF0FF075
:101E1400916D921FD8B0922B10EF0FF091C08BF000
:101E240092C08CF016EF0FF01200000E066E04BE86
:101E340020EF0FF01EEF0FF028EF0FF0036C041EDD
:101E4400D8B0042A010E066E28EF0FF002BE2FEF61
:101E54000FF02DEF0FF037EF0FF0016C021ED8B02A
:101E6400022A010E061A37EF0FF0000E086E000E5C
:101E7400076E03500410D8B442EF0FF044EF0FF094
:101E840078EF0FF0010E056E4EEF0FF0D890033689
:101E94000436052A4EEF0FF004AE53EF0FF055EF62
:101EA4000FF048EF0FF059EF0FF059EF0FF0D89003
:101EB400073608360350015C04500258D8A065EF79
:101EC4000FF067EF0FF06EEF0FF00350015E045058
:101ED400025A07806EEF0FF0D89004320332052EB9
:101EE40059EF0FF078EF0FF078EF0FF00650D8B4F9
:101EF4007EEF0FF080EF0FF086EF0FF0076C081EF7
:101F0400D8B0082A86EF0FF007C001F008C002F02D
:101F14008CEF0FF0120000019A519B11D8B495EF89
:101F24000FF097EF0FF0F5EF0FF09AC08BF09BC016
:101F34008CF066EC11F08BC09CF08CC09DF0D9EF56
:101F44000FF098C08BF099C08CF09AC08DF09BC0B4
:101F54008EF09CC08FF09DC090F0A3EC0DF00001BA
:101F64008B518C11D8A4B9EF0FF0BBEF0FF0C3EF76
:101F74000FF098C098F099C099F0FBEF0FF0FBEFC9
:101F84000FF0010E98258B6F000E99218C6F9AC06B
:101F9400F6FF9BC0F7FF0800F5508D6F8E6B93EC36
:101FA40011F08BC098F08CC099F0D9EF0FF00001BC
:101FB40098519911D8B4E1EF0FF0E3EF0FF0F5EF7A
:101FC4000FF098C0D9FF99C0DAFFDF50D8A4EDEF25
:101FD4000FF0EFEF0FF0A3EF0FF0F5EF0FF0F5EFC9
:101FE4000FF0F5EF0FF0000E986F000E996FFBEFF6
:101FF4000FF01200000E0001856F81BF06EF10F094
:1020040004EF10F00EEF10F0806D811FD8B0812B1B
:10201400010E856F0EEF10F083BF15EF10F013EF74
:1020240010F01BEF10F0826D831FD8B0832B1BEFD1
:1020340010F082518311D8B422EF10F024EF10F085
:1020440054EF10F0010E846F2EEF10F0D890823709
:102054008337842B2EEF10F083AF33EF10F035EF7E
:1020640010F028EF10F039EF10F039EF10F0825132
:10207400805D83518159D8A042EF10F044EF10F0F5
:102084004AEF10F08251805F8351815B4AEF10F078
:10209400D89083338233842F39EF10F054EF10F04B
:1020A40054EF10F08551D8B45AEF10F05CEF10F0F3
:1020B40062EF10F0806D811FD8B0812B62EF10F0B9
:1020C40080C080F081C081F068EF10F012001050E1
:1020D4001110D8B470EF10F072EF10F0CEEF10F0D2
:1020E40010C001F011C002F0ECEC11F001C012F0CC
:1020F40002C013F0B3EF10F00EC001F00FC002F0F5
:1021040010C003F011C004F012C005F013C006F0B3
:1021140022EC0EF001500210D8A493EF10F095EFCA
:1021240010F09DEF10F00EC00EF00FC00FF0D4EFC2
:1021340010F0D4EF10F0010E0E24016E000E0F20EB
:10214400026E10C0F6FF11C0F7FF0800F550036ED1
:10215400046AC0EC11F001C00EF002C00FF0B3EF3E
:1021640010F00E500F10D8B4BAEF10F0BCEF10F00E
:10217400CEEF10F00EC0D9FF0FC0DAFFDF50D8A4A5
:10218400C6EF10F0C8EF10F07EEF10F0CEEF10F0B5
:10219400CEEF10F0CEEF10F0000E0E6E000E0F6EAC
:1021A400D4EF10F0120078EC13F024EC13F030ECC0
:1021B40011F067EC12F0DFEF10F0CB0E0001986F16
:1021C400000E996F0F0E9A6F060E9B6F8DEC0FF039
:1021D400000198519911D8B4F2EF10F0F4EF10F017
:1021E400F8EF10F030EC11F0F8EF10F0CB0E000126
:1021F400986F000E996F150E9A6F060E9B6F8DECFB
:102204000FF0000198519911D8B40BEF11F00DEFB4
:1022140011F011EF11F0B8EC12F011EF11F0CB0E38
:102224000001986F000E996F1B0E9A6F060E9B6F3C
:102234008DEC0FF0000198519911D8B424EF11F0EE
:1022440026EF11F0DFEF10F011EC13F0DFEF10F0D8
:10225400DFEF10F0DFEF10F092EF00F0000E00015E
:102264008C6F000E8B6F8CBF41EF11F08C5109E124
:102274000A0E8B5DD8A041EF11F043EF11F047EF48
:1022840011F061EF11F061EF11F0CB0E8B25D96ED7
:10229400000E8C21DA6E000EDF6E8B4B8C2B8CBF04
:1022A4005DEF11F08C5109E10A0E8B5DD8A05DEF52
:1022B40011F05FEF11F047EF11F061EF11F0000E34
:1022C400CA6F000EC96F12008BC08FF08CC090F0E3
:1022D40071EF11F000018B4B8C2B71EF11F08BC05F
:1022E400F6FF8CC0F7FF0800F5500009D8A47DEF75
:1022F40011F07FEF11F06CEF11F081EF11F08FC04E
:102304008DF090C08EF000018D1F8E1F8D4B8E2B93
:102314008B518D258B6F8C518E218C6F92EF11F028
:1023240012008BC0D9FF8CC0DAFF00018D51DE187A
:10233400D8A49FEF11F0A1EF11F0A9EF11F08BC019
:102344008BF08CC08CF0BFEF11F0BFEF11F08BC09D
:10235400D9FF8CC0DAFF8B4B8C2BDF50D8A4B5EFA0
:1023640011F0B7EF11F093EF11F0B9EF11F0000E87
:102374008B6F000E8C6FBFEF11F0120001C0D9FFFC
:1023840002C0DAFF0350DE18D8A4CBEF11F0CDEF72
:1023940011F0D5EF11F001C001F002C002F0EBEF33
:1023A40011F0EBEF11F001C0D9FF02C0DAFF014ACE
:1023B400022ADF50D8A4E1EF11F0E3EF11F0C0EFEF
:1023C40011F0E5EF11F0000E016E000E026EEBEF5E
:1023D40011F0120001C005F002C006F0F6EF11F092
:1023E400014A022AF6EF11F001C0F6FF02C0F7FF1E
:1023F4000800F5500009D8A402EF12F004EF12F01F
:10240400F2EF11F006EF12F005C003F006C004F07D
:10241400031E041E034A042A01500324016E0250C1
:102424000420026E16EF12F012008BC08DF0000132
:102434008D478D47C2508D19C30B8D19C26EC28250
:10244400C28025EF12F0C2B22AEF12F02CEF12F084
:1024540025EF12F02EEF12F0C350C4CF8DF000011F
:102464008E6B8DC08EF08D6B8D118F6F8E51906F32
:102474008FC08BF090C08CF040EF12F01200CB0EA6
:102484000001C925D96E000ECA21DA6EAECFDFFF76
:10249400CB0EC925D96E000ECA21DA6EDF5045EC89
:1024A40013F00001C94BCA2BC9C080F0CAC081F027
:1024B400000E836F0A0E826FFCEC0FF080C0C9F02F
:1024C40081C0CAF066EF12F012009494070ECA6E2F
:1024D400000ECC6ED08EF28E100ECB6E000EBE6E41
:1024E400BD9ABD98BD86BD84BD92BD90CD8ECD8074
:1024F400CD92850ECF6EED0ECE6E9D809F909E90F8
:102504001200C19AC198C190C192C194C196C2509F
:10251400C30B1C09C26E9684C08EC050C70B080939
:10252400C06EC050F80B0309C06EC2809E9C9D8C87
:10253400F28ED08E9F8C120092689684C08EC080DA
:10254400C082C084000EC46E000EC36EC19AC198CE
:10255400C190C192C194C196C050C70B0809C06E06
:10256400C050F80B0309C06EC280120030EC11F0A9
:102574009EEC12F0000E00018C6F070E8B6F17ECAF
:1025840012F08BC0C5F08CC0C6F0C5C0BCF0C6C08C
:10259400BDF081EC07F00A0E35EC13F012000001D7
:1025A40093519503F3CF97F0F4CF98F0935196039A
:1025B400F350982794519503F350982797C093F0BC
:1025C40098C094F0E6EF12F0120000EEC7F00E0E81
:1025D400EE6AE806FDE100EE45F00E0EEE6AE8064E
:1025E400FDE153905392000EF86E060EF76E000153
:1025F400D5EF10F009500B02F3CF0DF0F4CF0EF02D
:1026040009500C02F3500E260A500B02F3500E260A
:102614000DC009F00EC00AF010EF13F01200000E06
:10262400956E30EC11F0000E526E000E516E000EDD
:10263400506E000E4F6E83EC12F064EC13F06FECEE
:1026440013F01200948C948EAC98B896AC84330E2C
:10265400AF6EAB8E9E889E9AAC8AAB889D989F98ED
:102664009D8A9F9A120000018B6F39EF13F0ACA280
:102674003EEF13F040EF13F039EF13F042EF13F095
:102684008BC0ADFF12000001806F49EF13F0ACA2C4
:102694004EEF13F050EF13F049EF13F052EF13F035
:1026A40080C0ADFF1200016E58EF13F0ACA25DEFD5
:1026B40013F05FEF13F058EF13F061EF13F001C064
:1026C400ADFF1200BA86BA94BA82BA80A080A28002
:1026D4007A0EBC6E120EBB6E1200B186B19CB18034
:1026E400B18EB150CF0B1009B16E1200D08EF28EA4
:0426F400F28C120052
:020000040020DA
:08000000FFFFFFFFFFFFFFFF00
:020000040030CA
:0E000000FF881F00FF8381FF0FC00FE00F403D
:00000001FF
