:020000040000FA
:040000003CEF00F0E1
:0600080054823DED05F0FD
:100018005480D8CF4DF0E8CF4EF0E0CF4FF0D9CF95
:1000280050F0DACF51F09EAA1CEF00F01EEF00F05E
:1000380030EF00F0ABA223EF00F025EF00F02AEF3D
:1000480000F0AB9800F0AB882AEF00F077EC08F0EE
:1000580030EF00F030EF00F051C0DAFF50C0D9FFA8
:100068004FC0E0FF4EC0E8FF4DC0D8FF54901000CD
:04007800D8EF08F0C5
:10060000000A48656C6C6F20576F726C640A002E8C
:1006100000003FC041F040C042F041C031F042C054
:1006200032F0030E346EE80E336ECCEC06F032BEC0
:1006300022EF03F0325008E13104D8A022EF03F09A
:1006400024EF03F004EF04F0270E2524D96E000EEA
:100650002620DA6E41C031F042C032F0030E346E13
:10066000E80E336ECCEC06F03150300FDF6E030E27
:10067000346EE80E336E41C031F042C032F0CCEC43
:1006800006F031C039F032C03AF0030E3C6EE80E8D
:100690003B6EB2EC08F0391E3A1E394A3A2A4150F4
:1006A0003924416E42503A20426E270E2524D96EDD
:1006B000000E2620DA6EDF50F6EC08F0254A262AD6
:1006C00025C031F026C032F0000E346E0A0E336EB3
:1006D000AEEC07F031C025F032C026F0270E2524FD
:1006E000D96E000E2620DA6E41C031F042C032F0E1
:1006F000000E346E640E336ECCEC06F03150300FC9
:10070000DF6E000E346E640E336E41C031F042C0B5
:1007100032F0CCEC06F031C039F032C03AF0000EC5
:100720003C6E640E3B6EB2EC08F0391E3A1E394A3C
:100730003A2A41503924416E42503A20426E270EE7
:100740002524D96E000E2620DA6EDF50F6EC08F074
:10075000254A262A25C031F026C032F0000E346E1C
:100760000A0E336EAEEC07F031C025F032C026F031
:10077000270E2524D96E000E2620DA6E41C031F0F6
:1007800042C032F0000E346E0A0E336ECCEC06F02E
:100790003150300FDF6E000E346E0A0E336E41C0E2
:1007A00031F042C032F0CCEC06F031C039F032C04A
:1007B0003AF0000E3C6E0A0E3B6EB2EC08F0391EA9
:1007C0003A1E394A3A2A41503924416E42503A2061
:1007D000426E270E2524D96E000E2620DA6EDF50D9
:1007E000F6EC08F0254A262A25C031F026C032F062
:1007F000000E346E0A0E336EAEEC07F031C025F0F9
:1008000032C026F018EF05F041C031F042C032F09E
:10081000000E346E640E336ECCEC06F032BE19EF6F
:1008200004F0325008E13104D8A019EF04F01BEFB6
:1008300004F0B1EF04F0270E2524D96E000E262017
:10084000DA6E41C031F042C032F0000E346E640EF8
:10085000336ECCEC06F03150300FDF6E000E346E8C
:10086000640E336E41C031F042C032F0CCEC06F081
:1008700031C039F032C03AF0000E3C6E640E3B6E6F
:10088000B2EC08F0391E3A1E394A3A2A415039244E
:10089000416E42503A20426E270E2524D96E000E3A
:1008A0002620DA6EDF50F6EC08F0254A262A25C00D
:1008B00031F026C032F0000E346E0A0E336EAEEC0C
:1008C00007F031C025F032C026F0270E2524D96E5E
:1008D000000E2620DA6E41C031F042C032F0000E28
:1008E000346E0A0E336ECCEC06F03150300FDF6EF2
:1008F000000E346E0A0E336E41C031F042C032F049
:10090000CCEC06F031C039F032C03AF0000E3C6E4B
:100910000A0E3B6EB2EC08F0391E3A1E394A3A2AEA
:1009200041503924416E42503A20426E270E252410
:10093000D96E000E2620DA6EDF50F6EC08F0254A5C
:10094000262A25C031F026C032F0000E346E0A0E81
:10095000336EAEEC07F031C025F032C026F018EF50
:1009600005F041C031F042C032F0000E346E0A0E84
:10097000336ECCEC06F032BEC6EF04F0325008E124
:100980003104D8A0C6EF04F0C8EF04F018EF05F06A
:10099000270E2524D96E000E2620DA6E41C031F0D4
:1009A00042C032F0000E346E0A0E336ECCEC06F00C
:1009B0003150300FDF6E000E346E0A0E336E41C0C0
:1009C00031F042C032F0CCEC06F031C039F032C028
:1009D0003AF0000E3C6E0A0E3B6EB2EC08F0391E87
:1009E0003A1E394A3A2A41503924416E42503A203F
:1009F000426E270E2524D96E000E2620DA6EDF50B7
:100A0000F6EC08F0254A262A25C031F026C032F03F
:100A1000000E346E0A0E336EAEEC07F031C025F0D6
:100A200032C026F018EF05F018EF05F018EF05F0CA
:100A3000270E2524D96E000E2620DA6E4150300F85
:100A4000DF6E270E2524D96E000E2620DA6EDF50C9
:100A5000F6EC08F0254A262A25C031F026C032F0EF
:100A6000000E346E0A0E336EAEEC07F031C025F086
:100A700032C026F03CEF05F012000600D9CF43F05B
:100A8000DACF44F0F3CF45F0F4CF46F09EAC4BEF15
:100A900005F04DEF05F051EF05F09E9CC280C2EFCE
:100AA00006F0A1A056EF05F058EF05F0C2EF06F0F2
:100AB000A190000E326E000E316E4FEC08F031C086
:100AC00001F032C002F0000E326E010E316E4FECBA
:100AD00008F031C003F032C004F0000E326E020E96
:100AE000316E4FEC08F031C005F032C006F0000E58
:100AF000326E030E316E4FEC08F031C007F032C099
:100B000008F0000E326E040E316E4FEC08F031C06A
:100B100009F032C00AF0000E326E050E316E4FEC55
:100B200008F031C00BF032C00CF0000E326E060E31
:100B3000316E4FEC08F031C00DF032C00EF0000EF7
:100B4000326E070E316E4FEC08F031C00FF032C03C
:100B500010F0000E326E080E316E4FEC08F031C00E
:100B600011F032C012F0000E326E090E316E4FECF1
:100B700008F031C013F032C014F0000E326E0A0ECD
:100B8000316E4FEC08F031C015F032C016F0000E97
:100B9000326E0B0E316E4FEC08F031C017F032C0E0
:100BA00018F0000E326E0C0E316E4FEC08F031C0B2
:100BB00019F032C01AF002BEE9EF05F0E80E015C50
:100BC000030E0258D8B0E7EF05F0E9EF05F0ECEFBF
:100BD00005F08C80EFEF05F08C90EFEF05F004BE90
:100BE000FDEF05F0E80E035C030E0458D8B0FBEFF0
:100BF00005F0FDEF05F000EF06F08C8203EF06F044
:100C00008C9203EF06F006BE11EF06F0E80E055CCD
:100C1000030E0658D8B00FEF06F011EF06F014EFF0
:100C200006F08C8417EF06F08C9417EF06F008BEE0
:100C300025EF06F0E80E075C030E0858D8B023EF46
:100C400006F025EF06F028EF06F08C862BEF06F075
:100C50008C962BEF06F00ABE39EF06F0E80E095C21
:100C6000030E0A58D8B037EF06F039EF06F03CEF24
:100C700006F08C883FEF06F08C983FEF06F001C03D
:100C80003FF002C040F009EC03F0200EF6EC08F053
:100C900003C03FF004C040F009EC03F0200EF6EC76
:100CA00008F005C03FF006C040F009EC03F0200E4C
:100CB000F6EC08F007C03FF008C040F009EC03F084
:100CC000200EF6EC08F009C03FF00AC040F009EC35
:100CD00003F0200EF6EC08F00BC03FF00CC040F023
:100CE00009EC03F0200EF6EC08F00DC03FF00EC04A
:100CF00040F009EC03F0200EF6EC08F00FC03FF0D6
:100D000010C040F009EC03F0200EF6EC08F011C022
:100D10003FF012C040F009EC03F0200EF6EC08F0B2
:100D200013C03FF014C040F009EC03F0200EF6ECC5
:100D300008F015C03FF016C040F009EC03F0200E9B
:100D4000F6EC08F017C03FF018C040F009EC03F0D3
:100D5000200EF6EC08F019C03FF01AC040F009EC84
:100D600003F00A0EF6EC08F0130EBC6E880EBB6E94
:100D7000000EB36E000EB26EC2EF06F0C2EF06F0C8
:100D8000C2EF06F046C0F4FF45C0F3FF44C0DAFFEF
:100D900043C0D9FF54921100000E366E34BED5EF19
:100DA00006F0D3EF06F0DDEF06F0336C341ED8B05A
:100DB000342A010E366EDDEF06F032BEE4EF06F0A7
:100DC000E2EF06F0ECEF06F0316C321ED8B0322ABA
:100DD000010E361AECEF06F0000E386E000E376E7C
:100DE00033503410D8B4F7EF06F0F9EF06F02DEFDA
:100DF00007F0010E356E03EF07F0D8903336343626
:100E0000352A03EF07F034AE08EF07F00AEF07F0DA
:100E1000FDEF06F00EEF07F00EEF07F0D890373633
:100E200038363350315C34503258D8A01AEF07F0BE
:100E30001CEF07F023EF07F03350315E3450325A85
:100E4000378023EF07F0D89034323332352E0EEF4F
:100E500007F02DEF07F02DEF07F03650D8B433EF41
:100E600007F035EF07F03BEF07F0376C381ED8B0CE
:100E7000382A3BEF07F037C031F038C032F041EF8D
:100E800007F01200000E4C6E48BE4BEF07F049EF22
:100E900007F053EF07F0476C481ED8B0482A010E00
:100EA0004C6E53EF07F04ABE5AEF07F058EF07F0C9
:100EB00060EF07F0496C4A1ED8B04A2A60EF07F08D
:100EC00049504A10D8B467EF07F069EF07F099EF7F
:100ED00007F0010E4B6E73EF07F0D89049364A3693
:100EE0004B2A73EF07F04AAE78EF07F07AEF07F07E
:100EF0006DEF07F07EEF07F07EEF07F04950475C9B
:100F00004A504858D8A087EF07F089EF07F08FEFD5
:100F100007F04950475E4A50485A8FEF07F0D89083
:100F20004A3249324B2E7EEF07F099EF07F099EFE6
:100F300007F04C50D8B49FEF07F0A1EF07F0A7EFF0
:100F400007F0476C481ED8B0482AA7EF07F047C003
:100F500047F048C048F0ADEF07F01200000E366EC3
:100F600032BEB7EF07F0B5EF07F0BFEF07F0316C17
:100F7000321ED8B0322A010E366EBFEF07F034BEF3
:100F8000C6EF07F0C4EF07F0CCEF07F0336C341E68
:100F9000D8B0342ACCEF07F033503410D8B4D3EFA4
:100FA00007F0D5EF07F005EF08F0010E356EDFEF23
:100FB00007F0D89033363436352ADFEF07F034AEF9
:100FC000E4EF07F0E6EF07F0D9EF07F0EAEF07F0FC
:100FD000EAEF07F03350315C34503258D8A0F3EFC9
:100FE00007F0F5EF07F0FBEF07F03350315E3450B8
:100FF000325AFBEF07F0D89034323332352EEAEF15
:1010000007F005EF08F005EF08F03650D8B40BEF05
:1010100008F00DEF08F013EF08F0316C321ED8B075
:10102000322A13EF08F031C031F032C032F019EF3C
:1010300008F01200000E536E000E526E53BE2AEFDF
:1010400008F0535009E10A0E525CD8A02AEF08F0CC
:101050002CEF08F030EF08F04AEF08F04AEF08F004
:10106000270E5224D96E000E5320DA6E000EDF6E6A
:10107000524A532A53BE46EF08F0535009E10A0E74
:10108000525CD8A046EF08F048EF08F030EF08F0C7
:101090004AEF08F0000E266E000E256E120031C0D9
:1010A00033F033463346C2503318C30B3318C26E85
:1010B000C282C2805CEF08F0C2B261EF08F063EF59
:1010C00008F05CEF08F065EF08F0C350C4CF33F0D0
:1010D000346A33C034F0336A3310356E3450366EB0
:1010E00035C031F036C032F076EF08F01200270E2E
:1010F0002524D96E000E2620DA6EAECFDFFF270E34
:101100002524D96E000E2620DA6EDF50E7EC08F0B9
:10111000254A262A25C047F026C048F0000E4A6E10
:101120000A0E496E42EC07F047C025F048C026F091
:101130009AEF08F01200C19AC198C190C192C1946F
:10114000C196C250C30B1C09C26E9684C08EC0509B
:10115000C70B0809C06EC050F80B0309C06EC280EF
:101160009E9C120039503B02F3CF3DF0F4CF3EF08D
:1011700039503C02F3503E263A503B02F3503E2693
:101180003DC039F03EC03AF0C6EF08F01200948C32
:10119000948EAC98B896AC84330EAF6EAB8E9E88AE
:1011A0009E9AAC8AAB889D989F989D8A9F9A1200C0
:1011B00000EE01F0300EEE6AE806FDE15490549224
:1011C000000EF86E060EF76E000105EF09F0476E8F
:1011D000EAEF08F0ACA2EFEF08F0F1EF08F0EAEF69
:1011E00008F0F3EF08F047C0ADFF1200316EF9EFE1
:1011F00008F0ACA2FEEF08F000EF09F0F9EF08F0FC
:1012000002EF09F031C0ADFF12003CEC09F0C7EC71
:1012100008F01AEC08F013EC09F021EC09F00FEFDC
:1012200009F03CEF00F095909592959495969598DD
:10123000959A959C959E9492949494969498949A49
:101240001200000E956E1AEC08F09BEC08F02CECE6
:1012500009F037EC09F01200BA96BA94BA82BA9043
:10126000A080A280130EBC6E880EBB6E1200B186E9
:10127000B19CB180B18E1200D08EF28EF28C120031
:020000040020DA
:08000000FFFFFFFFFFFFFFFF00
:020000040030CA
:0E000000FF881F00FF8381FF0FC00FE00F403D
:00000001FF
