:020000040000FA
:0400000007EF00F016
:10000800058209ED00F06DEF00F006009DA20FEFEC
:1000180000F011EF00F01EEF00F09EA216EF00F0C6
:1000280018EF00F01EEF00F0034A042A014A022AE2
:100038001EEF00F0D00E031807E1070E0418D8A42D
:1000480028EF00F02AEF00F039EF00F08CA02FEF36
:1000580000F032EF00F08C8033EF00F08C90000E4F
:10006800046E000E036E39EF00F0A00E011807E1D0
:100078000F0E0218D8A443EF00F045EF00F054EF3C
:1000880000F08CA24AEF00F04DEF00F08C824EEFAA
:1000980000F08C92000E026E000E016E54EF00F01C
:1000A8009E9205921100959095928C908C92D3888F
:1000B800D38AD38C050ECA6E000ECC6E9D829F82A9
:1000C8009E92D08EF28EFA0ECB6E69EF00F007EF9B
:1000D80000F0046A036A026A016A05900592000149
:0400E80057EF00F0DE
:020000040020DA
:08000000FFFFFFFFFFFFFFFF00
:020000040030CA
:0E000000FF081F1EFF8181FF0FC00FE00F40A1
:00000001FF
