:020000040000FA
:040000003CEF00F0E1
:060008004B8233ED09F00C
:100018004B80D8CF86F0E8CF87F0E0CF88F0D9CFF3
:1000280089F0DACF8AF09EAA1CEF00F01EEF00F0EC
:1000380030EF00F0ABA223EF00F025EF00F02AEF3D
:1000480000F0AB9800F0AB882AEF00F011EC0AF052
:1000580030EF00F030EF00F08AC0DAFF89C0D9FF36
:1000680088C0E0FF87C0E8FF86C0D8FF4B9010002B
:0400780052EF0AF049
:10060000000A48656C6C6F20576F726C640A0000BA
:100610001250800B1B6E12501224216E11AE13EF7C
:1006200003F015EF03F018EF03F0218018EF03F04B
:100630002150D8B41EEF03F020EF03F035EF03F0A4
:100640002128D8A426EF03F028EF03F032EF03F0BF
:10065000000E0F6E000E106E000E116E000E126E68
:1006600032EF03F0118E3FEF03F0000E0F6E000E1D
:10067000106E000E116E000E126E3FEF03F016505A
:10068000800B1B1A16501624206E15AE4AEF03F08D
:100690004CEF03F04FEF03F020804FEF03F02050BA
:1006A000D8B455EF03F057EF03F06CEF03F02028B8
:1006B000D8A45DEF03F05FEF03F069EF03F0000EE5
:1006C000136E000E146E000E156E000E166E69EF9E
:1006D00003F0158E74EF03F0000E136E000E146E0F
:1006E000000E156E000E166E2050D8B47AEF03F08F
:1006F0007CEF03F086EF03F02150D8A482EF03F0E3
:1007000084EF03F092EF03F086EF03F0000E0F6E1C
:10071000000E106E000E116E000E126E3EEF05F010
:100720003EEF05F015500F02F3CF26F0F4CF27F07F
:1007300026501C6E1D6A1E6A1F6A2750226E236A8D
:10074000246A256A14501002F3CF26F0F4CF27F064
:1007500026501C26000E1D221E221F222750222654
:10076000000E23222422252213501102F3CF26F05B
:10077000F4CF27F026501C26000E1D221E221F2219
:1007800027502226000E2322242225221EC01FF0DD
:100790001DC01EF01CC01DF01C6A13501002F3CFC8
:1007A00026F0F4CF27F026501C2627501D22000EDD
:1007B0001E22000E1F2214500F02F3CF26F0F4CF9A
:1007C00027F026501C2627501D22000E1E22000E48
:1007D0001F221EC01FF01DC01EF01CC01DF01C6A91
:1007E00013500F02F3CF26F0F4CF27F026501C262B
:1007F00027501D22000E1E22000E1F22155010022F
:10080000F3CF26F0F4CF27F02650222627502322BC
:10081000000E2422000E252214501102F3CF26F0E0
:10082000F4CF27F02650222627502322000E242220
:10083000000E252215501102F3CF26F0F4CF27F039
:100840002650176E2750186E196A1A6A19C01AF0C6
:1008500018C019F017C018F0176A17502226185040
:100860002322195024221A5025221CC017F01DC023
:1008700018F01EC019F01FC01AF0190E45EF04F051
:10088000D8901A32193218321732E82E40EF04F09D
:100890001750222618502322195024221A5025229C
:1008A0001EC01FF01DC01EF01CC01DF01C6A205091
:1008B00021C017F0186A1726000E1822820E17247E
:1008C000266EFF0E1820276E7DEF04F0D89022369A
:1008D0002336243625361FAE70EF04F072EF04F095
:1008E00073EF04F02280D8901C361D361E361F365A
:1008F0002606D8A027067DEF04F024AE82EF04F090
:1009000084EF04F066EF04F086EF04F0000E206E32
:100910001FAE8DEF04F08FEF04F0B7EF04F0FF0E81
:100920001C14176EFF0E1D14186EFF0E1E14196E88
:100930007F0E1F141A6E1750181019101A10D8B401
:10094000A4EF04F0A6EF04F0AAEF04F0010E206E6D
:10095000B7EF04F022A0AFEF04F0B1EF04F0B7EF6F
:1009600004F0010E206EB7EF04F0B7EF04F0205052
:10097000D8B4BDEF04F0BFEF04F0E7EF04F0010ED0
:100980002226000E23222422252225A0CAEF04F0CD
:10099000CCEF04F0E7EF04F022C017F023C018F00A
:1009A00024C019F025C01AF01A341A32193218323C
:1009B000173217C022F018C023F019C024F01AC053
:1009C00025F0264A272AE7EF04F0E7EF04F027BED8
:1009D000F2EF04F0275008E12628D8A0F2EF04F047
:1009E000F4EF04F0FEEF04F0000E226E000E236E12
:1009F000800E246E7F0E256E32EF05F027BE0BEFC2
:100A000005F0275006E12604D8B009EF05F00BEFFA
:100A100005F017EF05F0000E226E000E236E000E9B
:100A2000246E000E256E000E1B6E32EF05F026C000
:100A300021F0FF0E2216FF0E23167F0E2416000E45
:100A4000251621A026EF05F028EF05F02BEF05F085
:100A5000248E2BEF05F0D8902130256E32EF05F073
:100A600032EF05F01B50251222C00FF023C010F00A
:100A700024C011F025C012F03EEF05F01200000E68
:100A8000346E000E356E000E366E000E376E32C0BC
:100A900001F033C002F0000E02BEFF0E036E046EC2
:100AA000010E6BEC06F001C00FF002C010F003C0A5
:100AB00011F004C012F00A0E136E280E146EA00E70
:100AC000156E3B0E166E08EC03F00FC034F010C02C
:100AD00035F011C036F012C037F0000E136E000E64
:100AE000146EC80E156E420E166E34C00FF035C06F
:100AF00010F036C011F037C012F008EC03F00FC050
:100B000028F010C029F011C02AF012C02BF059ECC7
:100B100007F028C039F029C03AF039C001F03AC0D6
:100B200002F0000E046E640E036E02EC08F002BECA
:100B3000A2EF05F0025008E10104D8A0A2EF05F0F1
:100B4000A4EF05F005EF06F039C001F03AC002F05D
:100B5000000E046E640E036E02EC08F00150300FBC
:100B6000386E000E046E640E036E39C001F03AC098
:100B700002F002EC08F001C009F002C00AF0000E19
:100B80000C6E640E0B6E67EC0AF0091E0A1E094A11
:100B90000A2A39500924396E3A500A203A6E3850E0
:100BA000ADEC0AF02E0EADEC0AF039C001F03AC0FF
:100BB00002F0000E046E0A0E036E02EC08F0015003
:100BC000300F386E000E046E0A0E036E39C001F04D
:100BD0003AC002F002EC08F001C009F002C00AF0CD
:100BE000000E0C6E0A0E0B6E67EC0AF0091E0A1E50
:100BF000094A0A2A39500924396E3A500A203A6EB5
:100C00003850ADEC0AF05FEF06F039C001F03AC0A1
:100C100002F0000E046E0A0E036E02EC08F002BE33
:100C20001AEF06F0025008E10104D8A01AEF06F00E
:100C30001CEF06F052EF06F0300EADEC0AF02E0E6F
:100C4000ADEC0AF039C001F03AC002F0000E046EBB
:100C50000A0E036E02EC08F00150300F386E000EE1
:100C6000046E0A0E036E39C001F03AC002F002ECC5
:100C700008F001C009F002C00AF0000E0C6E0A0E66
:100C80000B6E67EC0AF0091E0A1E094A0A2A39503F
:100C90000924396E3A500A203A6E3850ADEC0AF009
:100CA0005FEF06F0300EADEC0AF02E0EADEC0AF060
:100CB000300EADEC0AF05FEF06F05FEF06F0395052
:100CC000300F386E3850ADEC0AF00A0E386E3850DE
:100CD000ADEC0AF01200096E0950D8B472EF06F0BC
:100CE00074EF06F096EF06F004BE7BEF06F079EFA6
:100CF00006F096EF06F001C005F002C006F003C052
:100D000007F004C008F0051E061E071E081E052A6F
:100D1000000E06220722082205C00BF006C00CF0C8
:100D200007C00DF008C00EF0A0EF06F001C00BF0F8
:100D300002C00CF003C00DF004C00EF0A0EF06F0EE
:100D40000150021003100410D8A4A9EF06F0ABEF75
:100D500006F0B7EF06F0000E016E000E026E000EF8
:100D6000036E000E046E58EF07F058EF07F0960E72
:100D70000A6EC3EF06F00A2AD8900E320D320C32FA
:100D80000B32C3EF06F0000E0B14056E000E0C14B0
:100D9000066E000E0D14076EFE0E0E14086E055042
:100DA000061007100810D8A4D8EF06F0DAEF06F006
:100DB000BBEF06F0EAEF06F0EAEF06F00A2A010EB2
:100DC0000B26000E0C220D220E22D8900E320D3270
:100DD0000C320B32000E0B14056E000E0C14066E56
:100DE000000E0D14076EFF0E0E14086E055006104F
:100DF00007100810D8A4FFEF06F001EF07F0DEEFB0
:100E000006F00DEF07F00DEF07F00A06D8900B364D
:100E10000C360D360E360DEF07F00DBE12EF07F053
:100E200014EF07F01EEF07F0020E0A601AEF07F04A
:100E30001CEF07F005EF07F01EEF07F00AB023EFF5
:100E400007F025EF07F028EF07F00D9E28EF07F0D9
:100E5000D8900A320AC005F0066A076A086A05C017
:100E600008F0076A066A056A05500B1206500C1254
:100E700007500D1208500E120950D8B442EF07F077
:100E800044EF07F04EEF07F004BE4BEF07F049EFD9
:100E900007F04EEF07F00E8E4EEF07F00BC001F09B
:100EA0000CC002F00DC003F00EC004F058EF07F0C4
:100EB00012002A342B34316E3150D8A462EF07F07F
:100EC00064EF07F070EF07F0000E286E000E296E39
:100ED000000E2A6E000E2B6E01EF08F001EF08F0F5
:100EE00028C02CF029C02DF02AC02EF02BC02FF0E6
:100EF000200E80EF07F0D8902F322E322D322C3278
:100F0000E82E7BEF07F02C50306E2A8EFF0E28164D
:100F1000FF0E2916FF0E2A16000E2B16960E315EB6
:100F200031BE97EF07F095EF07F0BBEF07F03150B8
:100F3000800A970FD8B09FEF07F0A1EF07F0AFEF4F
:100F400007F0000E286E000E296E000E2A6E000EAD
:100F50002B6E01EF08F001EF08F0AFEF07F0D8902B
:100F60002B322A3229322832313EAFEF07F0E5EF3B
:100F700007F0E5EF07F01F0E3164C1EF07F0C3EF94
:100F800007F0D9EF07F0000E286E000E296E000E54
:100F90002A6E000E2B6E01EF08F001EF08F0D9EF7A
:100FA00007F0D890283629362A362B363106D9EF65
:100FB00007F03150D8A4DFEF07F0E1EF07F0D1EFF1
:100FC00007F0E5EF07F0E5EF07F03050D8B4EBEFAE
:100FD00007F0EDEF07F0F7EF07F02B1E2A1E291E92
:100FE000286C000E29222A222B22F7EF07F028C0B6
:100FF00028F029C029F02AC02AF02BC02BF001EFDD
:1010000008F01200000E066E04BE0BEF08F009EFA8
:1010100008F013EF08F0036C041ED8B0042A010E88
:10102000066E13EF08F002BE1AEF08F018EF08F092
:1010300022EF08F0016C021ED8B0022A010E061A37
:1010400022EF08F0000E086E000E076E0350041029
:10105000D8B42DEF08F02FEF08F063EF08F0010E81
:10106000056E39EF08F0D89003360436052A39EFBB
:1010700008F004AE3EEF08F040EF08F033EF08F060
:1010800044EF08F044EF08F0D890073608360350D4
:10109000015C04500258D8A050EF08F052EF08F05D
:1010A00059EF08F00350015E0450025A078059EFCF
:1010B00008F0D89004320332052E44EF08F063EFB5
:1010C00008F063EF08F00650D8B469EF08F06BEF52
:1010D00008F071EF08F0076C081ED8B0082A71EF0D
:1010E00008F007C001F008C002F077EF08F0120026
:1010F000000E0001856F81BF82EF08F080EF08F0DD
:101100008AEF08F0806D811FD8B0812B010E856FAA
:101110008AEF08F083BF91EF08F08FEF08F097EFA8
:1011200008F0826D831FD8B0832B97EF08F08251AF
:101130008311D8B49EEF08F0A0EF08F0D0EF08F0CC
:10114000010E846FAAEF08F0D89082378337842B82
:10115000AAEF08F083AFAFEF08F0B1EF08F0A4EF0B
:1011600008F0B5EF08F0B5EF08F08251805D8351CB
:101170008159D8A0BEEF08F0C0EF08F0C6EF08F024
:101180008251805F8351815BC6EF08F0D890833332
:101190008233842FB5EF08F0D0EF08F0D0EF08F0DD
:1011A0008551D8B4D6EF08F0D8EF08F0DEEF08F09C
:1011B000806D811FD8B0812BDEEF08F080C080F0F9
:1011C00081C081F0E4EF08F01200D6EC0AF0ECECFC
:1011D0000AF0EBEF08F0F6EC0AF08BC093F08CC04D
:1011E00094F0000120EE04F09351D9269451DA22B4
:1011F000720EDE18D8A4FFEF08F001EF09F005EF3A
:1012000009F074EC09F005EF09F0000120EE04F09C
:101210009351D9269451DA22310EDE18D8A413EF57
:1012200009F015EF09F019EF09F0ECEC0AF019EFED
:1012300009F0000120EE04F09351D9269451DA22EE
:10124000320EDE18D8A427EF09F029EF09F0EBEFF2
:1012500008F0BCEC0AF0EBEF08F0EBEF08F0EBEF76
:1012600008F03CEF00F00600D9CF3BF0DACF3CF0BD
:10127000F3CF3DF0F4CF3EF09EAC41EF09F043EFE9
:1012800009F057EF09F09E9CC280AAEC09F0000E0D
:10129000406E000E3F6EC3CF3FF0C4CF40F03FC062
:1012A00032F040C033F03FEC05F06AEF09F0A1A046
:1012B0005CEF09F05EEF09F06AEF09F0A1907A0E99
:1012C000BC6E120EBB6EC2826AEF09F06AEF09F0C3
:1012D0006AEF09F03EC0F4FF3DC0F3FF3CC0DAFF07
:1012E0003BC0D9FF4B921100000E00018C6F000E25
:1012F0008B6F8CBF85EF09F08C5109E10A0E8B5D75
:10130000D8A085EF09F087EF09F08BEF09F0A5EF82
:1013100009F0A5EF09F0970E8B25D96E000E8C21F0
:10132000DA6E000EDF6E8B4B8C2B8CBFA1EF09F0B9
:101330008C5109E10A0E8B5DD8A0A1EF09F0A3EF53
:1013400009F08BEF09F0A5EF09F0000E966F000E83
:10135000956F1200000E026E000E016E02BEBAEF13
:1013600009F0025009E10A0E015CD8A0BAEF09F0B9
:10137000BCEF09F0C0EF09F0DAEF09F0DAEF09F09D
:10138000970E0124D96E000E0220DA6E000EDF6E79
:10139000014A022A02BED6EF09F0025009E10A0E04
:1013A000015CD8A0D6EF09F0D8EF09F0C0EF09F042
:1013B000DAEF09F0000E0001966F000E956F120033
:1013C000000E0001916F000E906FFAEF09F090513E
:1013D0008C258E6F91518D218F6F8EC0F6FF8FC03F
:1013E000F7FF0800F5508DEC0AF00001904B912BAF
:1013F000FAEF09F090518C258E6F91518D218F6FEE
:101400008EC0F6FF8FC0F7FF0800F5500009D8A482
:101410000CEF0AF00EEF0AF0E7EF09F010EF0AF018
:101420001200970E00019525D96E000E9621DA6EF6
:10143000AECFDFFF970E9525D96E000E9621DA6E9E
:10144000DF509DEC0AF00001954B962B95C080F083
:1014500096C081F0000E836F0A0E826F78EC08F060
:1014600080C095F081C096F036EF0AF01200C19A64
:10147000C198C190C192C194C196C250C30B1C09BE
:10148000C26E9684C08EC050F80B0409C06EC05066
:10149000C70B2809C06EC2809E9C9D8CF28ED08E98
:1014A0009F8C120000EE95F00C0EEE6AE806FDE14E
:1014B00000EE41F00A0EEE6AE806FDE14B904B9219
:1014C000000EF86E060EF76E0001E5EF08F0095009
:1014D0000B02F3CF0DF0F4CF0EF009500C02F350D5
:1014E0000E260A500B02F3500E260DC009F00EC056
:1014F0000AF07BEF0AF01200948C948EAC98B896A8
:10150000AC84CF0EAF6EAB8E9E889E9AAC8AAB88B1
:101510009D989F989D8A9F9A120000018B6F91EF72
:101520000AF0ACA296EF0AF098EF0AF091EF0AF0F9
:101530009AEF0AF08BC0ADFF12000001806FA1EF9F
:101540000AF0ACA2A6EF0AF0A8EF0AF0A1EF0AF0A9
:10155000AAEF0AF080C0ADFF1200016EB0EF0AF0F2
:10156000ACA2B5EF0AF0B7EF0AF0B0EF0AF0B9EFAE
:101570000AF001C0ADFF1200000E956E74EC09F088
:101580000A0E8DEC0AF037EC0AF0E1EC0AF004ECFC
:101590000BF0120092680E0EC16EC08EC080C08229
:1015A000C084000EC46E000EC36E120009EC0BF076
:1015B0000DEC0BF07CEC0AF0FEEC0AF0CAEC0AF041
:1015C0001200BA86BA94BA82BA80A080A2807A0E3B
:1015D000BC6E120EBB6E120074EC09F0010E00011D
:1015E0008C6F060E8D6FE0EC09F01200970E000173
:1015F0008B6F000E8C6FFDEF0AF012009494090EB1
:10160000BD6E9E949F841200B186B19CB180B18E54
:101610001200D38CD38AD3981200D08EF28EF28C23
:021620001200B6
:020000040020DA
:08000000FFFFFFFFFFFFFFFF00
:020000040030CA
:0E000000FF881F00FF8381FF0FC00FE00F403D
:00000001FF
