:020000040000FA
:0200000004D02A
:020002000000FC
:08000800E1D0D38CD38AD39818
:10001000956A836AD08EF288F19CF086F19AF28E0E
:100020006090709002D861EF00F0090E006E0F0E24
:10003000206E7C0E216E6F0E106E306A116A11C038
:10004000E8FF215E10C0E8FF205A04E63046308009
:1000500032EF00F011C0E8FF212610C0E8FF202297
:1000600030463090D89010321132002E1FEF00F041
:10007000336A3040E840E840E840336E0F0E3316F4
:10008000346A3040E840E840E840346E344234425C
:10009000344234420F0E3416236A2140E840E840CF
:1000A000E840236E0F0E2316246A2140E840E84002
:1000B000E840246E24422442244224420F0E241697
:1000C000120060B003D870B041D8FBD76090680EC2
:1000D000156EC80E146E0000000000000000142E03
:1000E0006BEF00F0152E69EF00F033C083FFD00EE8
:1000F000156EC80E146E0000000000000000142EE3
:100100007BEF00F0152E79EF00F0836A680E156E14
:10011000C80E146E0000000000000000142E8AEFCC
:1001200000F0152E88EF00F034C083FFD00E156E5E
:10013000C80E146E0000000000000000142E9AEF9C
:1001400000F0152E98EF00F0836A12007090680E90
:10015000156EC80E146E0000000000000000142E82
:10016000ABEF00F0152EA9EF00F023C083FFD00EF7
:10017000156EC80E146E0000000000000000142E62
:10018000BBEF00F0152EB9EF00F0836A680E156E14
:10019000C80E146E0000000000000000142ECAEF0C
:1001A00000F0152EC8EF00F024C083FFD00E156EAE
:1001B000C80E146E0000000000000000142EDAEFDC
:1001C00000F0152ED8EF00F0836A1200F2A2ECEFD7
:1001D00000F0F29260801000F0B0F090708010009B
:020000040030CA
:0100010008F6
:010002001FDE
:010003001EDE
:010005008179
:010006008178
:010008000FE8
:01000900C036
:01000A000FE6
:01000B00E014
:01000C000FE4
:01000D0040B2
:00000001FF
