:020000040000FA
:04000000FDEF00F020
:060008005A82F7ED03F03F
:100018005A80D8CF37F0E8CF38F0E0CF39F0D9CFD1
:100028003AF0DACF3BF0F3CF3CF0F4CF3DF0F6CF27
:100038003EF0F7CF3FF0F8CF40F0F5CF41F09EAA61
:1000480028EF00F02AEF00F03AEF00F0ABA22FEF14
:1000580000F031EF00F036EF00F0AB9800F0AB881D
:1000680036EF00F00EEC0AF03AEF00F09EA03FEFFA
:1000780000F041EF00F0E5EF00F09E90D10E286E01
:10008800000E296E0E0E2A6E060E2B6E77EC06F009
:1000980028502910D8B453EF00F055EF00F05AEF6C
:1000A80000F0CD90CA948B94E5EF00F052505310B5
:1000B800D8A461EF00F063EF00F07EEF00F0100EBF
:1000C800BE6069EF00F06BEF00F07EEF00F0BE2835
:1000D800BE6E100EBE18D8A474EF00F076EF00F0D4
:1000E800A3EF00F0000E536E010E526EA3EF00F066
:1000F800A3EF00F052045310D8A485EF00F087EF67
:1001080000F0A3EF00F0BE50D8B48DEF00F08FEFF1
:1001180000F0A3EF00F0BE04BE6EBE50D8A497EF67
:1001280000F099EF00F0A3EF00F0000E536E000E00
:10013800526EA3EF00F0A3EF00F0A3EF00F0030E60
:10014800246E2368C3CF1BF0C4CF1CF0000E1E6EB4
:10015800050E1D6E6DEC0AF01BC021F01CC022F0CC
:100168005BEC08F021C046F022C047F046C01BF007
:1001780047C01CF0000E1E6EC80E1D6E6DEC0AF016
:10018800050E366ED8901C321B32362EC6EF00F0A4
:100198001BC028F01CC029F02A6A2B6A000E09EC43
:1001A80003F028C042F029C043F02AC044F02BC015
:1001B80045F0850ECF6EED0ECE6EE5EF00F0E5EF63
:1001C80000F041C0F5FF40C0F8FF3FC0F7FF3EC058
:1001D800F6FF3DC0F4FF3CC0F3FF3BC0DAFF3AC076
:1001E800D9FF39C0E0FF38C0E8FF37C0D8FF5A90C0
:0601F8001000D5EF08F035
:100600000062726561746800626C696E6B007100F3
:0106100000E9
:10061200306E3050D8B410EF03F012EF03F034EF25
:1006220003F02BBE19EF03F017EF03F034EF03F0E2
:1006320028C02CF029C02DF02AC02EF02BC02FF09C
:100642002C1E2D1E2E1E2F1E2C2A000E2D222E2277
:100652002F222CC032F02DC033F02EC034F02FC028
:1006620035F03EEF03F028C032F029C033F02AC043
:1006720034F02BC035F03EEF03F0285029102A1039
:100682002B10D8A447EF03F049EF03F055EF03F026
:10069200000E286E000E296E000E2A6E000E2B6EC2
:1006A200F6EF03F0F6EF03F0960E316E61EF03F012
:1006B200312AD890353234323332323261EF03F09C
:1006C200000E32142C6E000E33142D6E000E3414F4
:1006D2002E6EFE0E35142F6E2C502D102E102F1054
:1006E200D8A476EF03F078EF03F059EF03F088EF28
:1006F20003F088EF03F0312A010E3226000E332276
:1007020034223522D8903532343233323232000E2E
:1007120032142C6E000E33142D6E000E34142E6E15
:10072200FF0E35142F6E2C502D102E102F10D8A422
:100732009DEF03F09FEF03F07CEF03F0ABEF03F0CC
:10074200ABEF03F03106D8903236333634363536D5
:10075200ABEF03F034BEB0EF03F0B2EF03F0BCEF47
:1007620003F0020E3160B8EF03F0BAEF03F0A3EF2B
:1007720003F0BCEF03F031B0C1EF03F0C3EF03F0BD
:10078200C6EF03F0349EC6EF03F0D890313231C089
:100792002CF02D6A2E6A2F6A2CC02FF02E6A2D6A39
:1007A2002C6A2C5032122D5033122E5034122F50EC
:1007B20035123050D8B4E0EF03F0E2EF03F0ECEF83
:1007C20003F02BBEE9EF03F0E7EF03F0ECEF03F0E9
:1007D200358EECEF03F032C028F033C029F034C07C
:1007E2002AF035C02BF0F6EF03F012000600D9CF45
:1007F20015F0DACF16F0F6CF17F0F7CF18F0F8CFE2
:1008020019F0F5CF1AF09EA009EF04F00BEF04F0F7
:100812007FEF04F09E90544A552AD10E0E6E000EC0
:100822000F6E0E0E106E060E116E4FEC07F00E508C
:100832000F10D8B41FEF04F021EF04F028EF04F0FA
:10084200CD908C908C928C948C967FEF04F05850C3
:10085200545C5550800A146E5950800A1458D8A01E
:1008620035EF04F037EF04F07FEF04F00001BDBF75
:1008720043EF04F0BD5108E1BC05D8A043EF04F0FA
:1008820045EF04F046EF04F08C70BDBF52EF04F068
:10089200BD5109E1020EBC5DD8A052EF04F054EF45
:1008A20004F055EF04F08C72BDBF61EF04F0BD514E
:1008B20009E1030EBC5DD8A061EF04F063EF04F020
:1008C20064EF04F08C74BDBF70EF04F0BD5109E118
:1008D200040EBC5DD8A070EF04F072EF04F075EF67
:1008E20004F08C7675EF04F0000E556E000E546E17
:1008F2007FEF04F07FEF04F07FEF04F01AC0F5FF02
:1009020019C0F8FF18C0F7FF17C0F6FF16C0DAFFCC
:1009120015C0D9FF5A921100BEC0C7F0BFC0C8F0BF
:10092200C0C0C9F0C1C0CAF00001C207D8A0C30745
:10093200C22906E1C329D8A4A1EF04F0A3EF04F071
:10094200B6EF04F0000EBF6F000EBE6F0BEF05F0A6
:100952000BEF05F0B6EF04F0C74BC82BC94BCA2BFF
:10096200C207D8A0C307B6EF04F0C7C0D9FFC8C0FA
:10097200DAFFDF50D8B4C0EF04F0C2EF04F0F1EFB9
:1009820004F0C9C0F6FFCAC0F7FF0800F55000091D
:10099200D8B4CEEF04F0D0EF04F0F1EF04F0C2517E
:1009A200C311D8B4D7EF04F0D9EF04F0F1EF04F09B
:1009B200C7C0D9FFC8C0DAFFDF50C46FC9C0F6FF95
:1009C200CAC0F7FF0800F550C419D8B4EBEF04F021
:1009D200EDEF04F0ADEF04F0F1EF04F0F1EF04F00D
:1009E200C9C0F6FFCAC0F7FF0800F550C46FC56B57
:1009F200C41FC51FC44BC52BC7C0D9FFC8C0DAFF6F
:100A0200DF50C66FC651C425BE6F000EC521BF6F31
:100A12000BEF05F012001BC024F01CC025F01DC016
:100A220026F01EC027F01F06D8A020061F2806E1C8
:100A32002028D8A41FEF05F021EF05F034EF05F0D0
:100A4200000E1C6E000E1B6E89EF05F089EF05F09B
:100A520034EF05F0244A252A264A272A1F06D8A061
:100A6200200634EF05F024C0D9FF25C0DAFFDF509D
:100A7200D8B43EEF05F040EF05F06FEF05F026C069
:100A8200F6FF27C0F7FF0800F5500009D8B44CEF75
:100A920005F04EEF05F06FEF05F01F502010D8B4AF
:100AA20055EF05F057EF05F06FEF05F024C0D9FFC1
:100AB20025C0DAFFDF50216E26C0F6FF27C0F7FF00
:100AC2000800F5502118D8B469EF05F06BEF05F076
:100AD2002BEF05F06FEF05F06FEF05F026C0F6FF84
:100AE20027C0F7FF0800F550216E226A211E221E40
:100AF200214A222A24C0D9FF25C0DAFFDF50236E03
:100B0200235021241B6E000E22201C6E89EF05F05B
:100B1200120001C00AF002C00BF003C00CF004C0C6
:100B22000DF00506D8A00606052806E10628D8A479
:100B32009DEF05F09FEF05F0B2EF05F0000E026E9B
:100B4200000E016E07EF06F007EF06F0B2EF05F0B8
:100B52000A4A0B2A0C4A0D2A0506D8A00606B2EF4D
:100B620005F00AC0D9FF0BC0DAFFDF50D8B4BCEFE2
:100B720005F0BEEF05F0EDEF05F00CC0F6FF0DC07D
:100B8200F7FF0800F5500009D8B4CAEF05F0CCEF22
:100B920005F0EDEF05F005500610D8B4D3EF05F0DF
:100BA200D5EF05F0EDEF05F00AC0D9FF0BC0DAFF73
:100BB200DF50076E0CC0F6FF0DC0F7FF0800F550BE
:100BC2000718D8B4E7EF05F0E9EF05F0A9EF05F053
:100BD200EDEF05F0EDEF05F00CC0F6FF0DC0F7FFED
:100BE2000800F550076E086A071E081E074A082A01
:100BF2000AC0D9FF0BC0DAFFDF50096E0950072483
:100C0200016E000E0820026E07EF06F012000001CE
:100C1200CD51CE11D8B410EF06F012EF06F070EFFE
:100C220006F0CDC0BEF0CEC0BFF006EC09F0BEC0EB
:100C3200CFF0BFC0D0F054EF06F0CBC0BEF0CCC0B6
:100C4200BFF0CDC0C0F0CEC0C1F0CFC0C2F0D0C0A6
:100C5200C3F08DEC04F00001BE51BF11D8A434EFF3
:100C620006F036EF06F03EEF06F0CBC0CBF0CCC07C
:100C7200CCF076EF06F076EF06F0010ECB25BE6FD4
:100C8200000ECC21BF6FCDC0F6FFCEC0F7FF08002B
:100C9200F550C06FC16B33EC09F0BEC0CBF0BFC0E2
:100CA200CCF054EF06F00001CB51CC11D8B45CEF7C
:100CB20006F05EEF06F070EF06F0CBC0D9FFCCC0B5
:100CC200DAFFDF50D8A468EF06F06AEF06F01EEFF5
:100CD20006F070EF06F070EF06F070EF06F0000E0F
:100CE200CB6F000ECC6F76EF06F012002A502B105D
:100CF200D8B47EEF06F080EF06F0DCEF06F02AC0F3
:100D02001BF02BC01CF0B8EC09F01BC02CF01CC06F
:100D12002DF0C1EF06F028C01BF029C01CF02AC03C
:100D22001DF02BC01EF02CC01FF02DC020F00CECCB
:100D320005F01B501C10D8A4A1EF06F0A3EF06F09B
:100D4200ABEF06F028C028F029C029F0E2EF06F048
:100D5200E2EF06F0010E28241B6E000E29201C6E05
:100D62002AC0F6FF2BC0F7FF0800F5501D6E1E6A61
:100D720060EC09F01BC028F01CC029F0C1EF06F09E
:100D820028502910D8B4C8EF06F0CAEF06F0DCEFFD
:100D920006F028C0D9FF29C0DAFFDF50D8A4D4EF6B
:100DA20006F0D6EF06F08CEF06F0DCEF06F0DCEF93
:100DB20006F0DCEF06F0000E286E000E296EE2EF60
:100DC20006F01200000E206E1CBEECEF06F0EAEFF9
:100DD20006F0F4EF06F01B6C1C1ED8B01C2A010EA4
:100DE200206EF4EF06F01EBEFBEF06F0F9EF06F000
:100DF20001EF07F01D6C1E1ED8B01E2A01EF07F08E
:100E02001D501E10D8B408EF07F00AEF07F03AEFB2
:100E120007F0010E1F6E14EF07F0D8901D361E3634
:100E22001F2A14EF07F01EAE19EF07F01BEF07F0B1
:100E32000EEF07F01FEF07F01FEF07F01D501B5CCE
:100E42001E501C58D8A028EF07F02AEF07F030EF09
:100E520007F01D501B5E1E501C5A30EF07F0D89051
:100E62001E321D321F2E1FEF07F03AEF07F03AEF46
:100E720007F02050D8B440EF07F042EF07F048EFF8
:100E820007F01B6C1C1ED8B01C2A48EF07F01BC0D1
:100E92001BF01CC01CF04EEF07F012001050111096
:100EA200D8B456EF07F058EF07F0B4EF07F010C0D0
:100EB20001F011C002F0E3EC09F001C012F002C02F
:100EC20013F099EF07F00EC001F00FC002F010C04E
:100ED20003F011C004F012C005F013C006F08AEC52
:100EE20005F001500210D8A479EF07F07BEF07F06C
:100EF20083EF07F00EC00EF00FC00FF0BAEF07F04D
:100F0200BAEF07F0010E0E24016E000E0F20026EE2
:100F120010C0F6FF11C0F7FF0800F550036E046A17
:100F22008CEC09F001C00EF002C00FF099EF07F04F
:100F32000E500F10D8B4A0EF07F0A2EF07F0B4EFF5
:100F420007F00EC0D9FF0FC0DAFFDF50D8A4ACEF14
:100F520007F0AEEF07F064EF07F0B4EF07F0B4EF7D
:100F620007F0B4EF07F0000E0E6E000E0F6EBAEF30
:100F720007F012009FEC08F0959095929594959643
:100F8200010ECD6E000ED66ED6CFCFFF9D809F8014
:100F92009E90000E556E000E546E0001BDBFDAEF3A
:100FA20007F0BD5108E1BC05D8A0DAEF07F0DCEF8D
:100FB20007F0DFEF07F08C80DFEF07F0BDBFEBEF4C
:100FC20007F0BD5109E1020EBC5DD8A0EBEF07F0BE
:100FD200EDEF07F0F0EF07F08C82F0EF07F0BDBF06
:100FE200FCEF07F0BD5109E1030EBC5DD8A0FCEF98
:100FF20007F0FEEF07F001EF08F08C8401EF08F034
:10100200BDBF0DEF08F0BD5109E1040EBC5DD8A0D3
:101012000DEF08F00FEF08F012EF08F08C8612EFD8
:1010220008F01200A7EC0AF082EC0AF09FEC08F03C
:101032001BEF08F0D10E0001CB6F000ECC6F010E3A
:10104200CD6F060ECE6F08EC06F00001CB51CC112D
:10105200D8B42EEF08F030EF08F034EF08F0A2EC2D
:101062000AF034EF08F0D10E0001CB6F000ECC6F06
:10107200080ECD6F060ECE6F08EC06F00001CB51C4
:10108200CC11D8B447EF08F049EF08F01BEF08F095
:10109200000E596E010E586E000EBD6F020EBC6F2F
:1010A200BBEC07F01BEF08F01BEF08F01BEF08F09A
:1010B200FDEF00F0000E266E000E256E2350241068
:1010C200D8B466EF08F068EF08F09AEF08F0010E66
:1010D200276E72EF08F0D89023362436272A72EF53
:1010E20008F024AE77EF08F079EF08F06CEF08F023
:1010F2007DEF08F07DEF08F0D89025362636235094
:10110200215C24502258D8A089EF08F08BEF08F018
:1011120092EF08F02350215E2450225A258092EF4C
:1011220008F0D89024322332272E7DEF08F09AEF70
:1011320008F025C021F026C022F01200000E0001A6
:10114200BF6F000EBE6FBFBFB0EF08F0BF5109E125
:101152000A0EBE5DD8A0B0EF08F0B2EF08F0B6EF0D
:1011620008F0D0EF08F0D0EF08F0D10EBE25D96E0E
:10117200000EBF21DA6E000EDF6EBE4BBF2BBFBF6B
:10118200CCEF08F0BF5109E10A0EBE5DD8A0CCEF4A
:1011920008F0CEEF08F0B6EF08F0D0EF08F0000E3E
:1011A200576E000E566E1200640EF66E140EF76E37
:1011B200000EF86E00EE80F010EE3EF00900F5CF62
:1011C200EEFFE550E150FAE1560EF66E150EF76E9F
:1011D200000EF86E0900F5CF58F00900F5CF59F06E
:1011E20000EED1F00A0EEE6AE806FDE100EE48F0EC
:1011F200100EEE6AE806FDE15A905A92000EF86E61
:10120200060EF76E000113EF08F0BEC0C2F0BFC0B9
:10121200C3F011EF09F00001BE4BBF2B11EF09F033
:10122200BEC0F6FFBFC0F7FF0800F5500009D8A402
:101232001DEF09F01FEF09F00CEF09F021EF09F0A3
:10124200C2C0C0F0C3C0C1F00001C01FC11FC04B6B
:10125200C12BBE51C025BE6FBF51C121BF6F32EF3E
:1012620009F01200BEC0D9FFBFC0DAFF0001C051B1
:10127200DE18D8A43FEF09F041EF09F049EF09F079
:10128200BEC0BEF0BFC0BFF05FEF09F05FEF09F074
:10129200BEC0D9FFBFC0DAFFBE4BBF2BDF50D8A400
:1012A20055EF09F057EF09F033EF09F059EF09F064
:1012B200000EBE6F000EBF6F5FEF09F012001BC081
:1012C200D9FF1CC0DAFF1D50DE18D8A46BEF09F05D
:1012D2006DEF09F075EF09F01BC01BF01CC01CF08C
:1012E2008BEF09F08BEF09F01BC0D9FF1CC0DAFFAE
:1012F2001B4A1C2ADF50D8A481EF09F083EF09F0C2
:1013020060EF09F085EF09F0000E1B6E000E1C6EF7
:101312008BEF09F0120001C0D9FF02C0DAFF0350BF
:10132200DE18D8A497EF09F099EF09F0A1EF09F0C0
:1013320001C001F002C002F0B7EF09F0B7EF09F007
:1013420001C0D9FF02C0DAFF014A022ADF50D8A445
:10135200ADEF09F0AFEF09F08CEF09F0B1EF09F052
:10136200000E016E000E026EB7EF09F012001BC0F4
:101372001FF01CC020F0C2EF09F01B4A1C2AC2EF6A
:1013820009F01BC0F6FF1CC0F7FF0800F55000096A
:10139200D8A4CEEF09F0D0EF09F0BEEF09F0D2EFFA
:1013A20009F01FC01DF020C01EF01D1E1E1E1D4A8A
:1013B2001E2A1B501D241B6E1C501E201C6EE2EFA9
:1013C20009F0120001C005F002C006F0EDEF09F0CD
:1013D200014A022AEDEF09F001C0F6FF02C0F7FF51
:1013E2000800F5500009D8A4F9EF09F0FBEF09F065
:1013F200E9EF09F0FDEF09F005C003F006C004F0C3
:10140200031E041E034A042A01500324016E0250E3
:101412000420026E0DEF0AF01200D10E5624D96E8E
:10142200000E5720DA6EAECFDFFFD10E5624D96EF2
:10143200000E5720DA6EDF5093EC0AF0564A572A14
:1014420056C01BF057C01CF0000E1E6E0A0E1D6E19
:10145200E3EC06F01BC056F01CC057F031EF0AF067
:1014620012001003930293020000BA024B024B02D5
:1014720000000B024B029302BA0210031003100386
:1014820000001003930293020000BA024B024B02C7
:1014920000000B02930210031003930200000400E9
:1014A2009494070ECA6E000ECC6ED08EF28E100E81
:1014B200CB6E000EBE6EBD9ABD98BD86BD84BD9238
:1014C200BD90CD8ECD80CD92850ECF6EED0ECE6EBF
:1014D2009D809F909E9012001B501D02F3CF1FF023
:1014E200F4CF20F01B501E02F35020261C501D0288
:1014F200F35020261FC01BF020C01CF081EF0AF021
:101502001200948C948EAC98B896AC84330EAF6E65
:10151200AB8E9E889E9AAC8AAB889D989F989D8A36
:101522009F9A12001B6E96EF0AF0ACA29BEF0AF094
:101532009DEF0AF096EF0AF09FEF0AF01BC0ADFF95
:1015420012009FEC08F051EC0AF01200D08EF28EDD
:06155200F28C1200010002
:020000040020DA
:08000000FFFFFFFFFFFFFFFF00
:020000040030CA
:0E000000FF881F00FF8381FF0FC00FE00F403D
:00000001FF
